:100000000C9422020C943F020C943F020C940C1CA2
:100010000C943F020C943F020C943F020C943F025C
:100020000C943F020C943F020C94B4220C9488234D
:100030000C94EB1D0C943F020C943F020C943F0275
:100040000C943F020C943F020C943F020C943F022C
:100050000C943F020C948E1E0C943F020C943F02B1
:100060000C943F020C943F020C943F020C943F020C
:100070000C943F020C943F020C943F020C943F02FC
:100080000C943F020C943F020C943F020C943F02EC
:100090000C943F020C943F020C943F020C943F02DC
:1000A0000C943F020C943F020C943F0200050105A2
:1000B0000205030504050505000601060206030600
:1000C00004060506000701070207030704070507E2
:1000D00000080108020803080408050800090109CE
:1000E00002090309040905090000010002000300D8
:1000F00004000500000101010201030104010501E2
:1001000000020102020203020402050200030103CD
:1001100002030303040305030004010402040304AF
:100120000404050429001E001F00200021002200F5
:100130002B0014001A00080015001700E10004004D
:100140001600070009000A00E0001D001B00060061
:10015000190005000000E20023522C00E300BC005F
:100160002D002702260230002F0023002A00130052
:1001700012000C0018001C002A0033000F000E00B3
:100180000D000B00E50038003700360010001100AC
:1001900000005900225228003200BB0035001E002A
:1001A0001F00200021002200290014001A0009006D
:1001B00013000A002B0004001500160017000700AA
:1001C000E1001D001B00060019000500E300E2002D
:1001D000E00022522800A800350027002600250054
:1001E000240023002A0033001C0018000F000D001B
:1001F000340012000C00080011000B00E50038006C
:100200003700360010000E00E700E600E40023523D
:100210002C00000001003A003B003C003D003E0085
:1002200035001E001F0020002100220001001E02D8
:100230001F0220022102220201002E002D002E02A8
:100240002F02300201000100010001000100010045
:10025000440043004200410040003F0045002700A9
:100260002600250024002300310227022602250251
:1002700024022302010031003302330030002F003A
:1002800001000100010024520100010001000100F1
:100290000100010001000100010049004600650065
:1002A000000000000100E200E000E1000000390071
:1002B00001001D011B0106011901000001000100E0
:1002C00001002452010001000100010001000100B1
:1002D000010001002A002A014F014E0050014B008D
:1002E0002A004C004F005200510050000100000055
:1002F0004D0000004A000000010001000100010063
:1003000001000100000000000000000000000000EB
:10031000007C0000405241521D70000000000000AF
:100320001D70000000000000000000000000000040
:1003300000000000010001000100010001000000B8
:1003400000000000000000000000000000000000AD
:10035000000000000000000000000000A900A8004C
:10036000AA00000000000000AB00AE00AC000000DE
:1003700001000100010001000100000000AE00AF1B
:1003800000DA0281FFD9F1DB20A4A62EAF00A0C0C5
:10039000D30000A1C8D30000AED580A81F408D14A3
:1003A00020000C0353006F0066006C006500000025
:1003B0001A034A006F007300650066004100640084
:1003C00061006D00630069006B0000000403090414
:1003D00009022200010100A0FA0904000001030142
:1003E00001000921110100012240000705810308D5
:1003F0000001120100020000000832FC8702010027
:100400000102000105010906A101050719E029E71C
:100410001500250195087501810295017508810176
:100420000507190029FF150026FF009506750881AC
:1004300000050819012905950575019102950175B9
:10044000039101C011241FBECFEFDAE0DEBFCDBFA4
:1004500011E0A0E0B1E0ECEAFCE402C005900D92EE
:10046000A236B107D9F724E0A2E6B1E001C01D929F
:10047000AA3AB207E1F70E9404150C940E260C94D8
:1004800000008530B8F46A30A8F4463098F450E0A3
:1004900096E0699F400D511D1124FA019CE3899F4C
:1004A000E00DF11D1124EE0FFF1FEC5DFE4F859155
:1004B0009491089581E090E008950E94410208958A
:1004C00081E008950E946002089581E008950E94ED
:1004D000600208950E946702089508950E946D02C7
:1004E0000895A6E0B0E0E7E7F2E00C947E254983AA
:1004F0005A839E833091710189819A8131111AC08A
:100500003E81332399F0222389F00E949608182F08
:10051000682F89819A810E94720869817A81812F6E
:100520000E94B90F2696E3E00C949A250E94840855
:10053000182FF3CF0E94960869817A81F1CFFC01D0
:10054000262F4081518162817381848195810E942F
:1005500071020895CF93DF93EC0161E00E949F0246
:10056000BE010E946202DF91CF910895CF93DF9385
:10057000EC0160E00E949F02BE010E946E02DF91CA
:10058000CF91089508950E9447070E94C2022FEF5D
:1005900084E39CE0215080409040E1F700C00000DF
:1005A00008950E94C3020E94B21E08950E94C302D1
:1005B0000E94C31E08950F931F93CF93DF938C0166
:1005C00061E00E949F02EC01B8010E946A02811161
:1005D00006C080E0DF91CF911F910F910895B8017F
:1005E000CE010E943C1A8823A1F3B801CE010E94DB
:1005F0004F17882371F3B801CE010E94AE198823EA
:1006000041F3F8018581882361F0C330FCE7DF07FF
:10061000E9F058F4C115ECE7DE07A9F0C130DC477A
:10062000B9F0C8010E946502D5CFCB358CE7D80759
:10063000A9F0CC35ECE7DE0771F0CA35DC4789F765
:100640000E94F20CEECF0E94D102C3CF0E94FA0C9E
:100650000E94D602BECF0E94E80CE3CF0E94F60CA7
:10066000E0CF0E94C81D0E945A030E94F716089509
:100670000E945E030E94CD1D0895089581E00895B3
:100680000895CF93DF93D82F0E943E03C82F88236D
:1006900019F08D2F0E9440038C2FDF91CF91089588
:1006A0000895CF93C82F0E943D038C2F0E944103D1
:1006B000CF91089580E00E94510308950E94321D59
:1006C0000E9451030895CF930E94321DC82F80913C
:1006D00064018C1779F0C09364010E94571E6093E7
:1006E00065017093660180936701909368018C2F78
:1006F0000E945103CF910895442319F08091730112
:1007000008959C0143E0369527954A95E1F7620FDD
:10071000731F8770992721E030E001C0220F8A956E
:10072000EAF7FB019081922381E009F480E00895CB
:10073000FC01E770FF2721E030E001C0220FEA95BD
:10074000EAF733E0969587953A95E1F7FB01E80FD4
:10075000F91F8081442319F0282B208308952095C8
:100760002823FBCF0F931F93CF93DF938C01DC01E2
:1007700014968C911497813071F511968C91119784
:100780008A3048F5CC91C63030F5D0E0B6E08B9F8A
:10079000C00DD11D1124F801458169E671E0CE013B
:1007A0000E947C0340E0882389F0CE01880F991FC6
:1007B000FC01E355FF4FE491D8011196EC9311979A
:1007C000FC01E455FF4FE491EC9341E069E671E0F0
:1007D000CE010E949803DF91CF911F910F91089550
:1007E000ADE0B0E0E6EFF3E00C947F254887598751
:1007F0006A877B878C879D8791110E94200C8C854E
:10080000882321F0CE0108960E94B2031F8286E061
:10081000FE013896DE01119601900D928A95E1F75E
:100820008D8181110DC029813A814B815C816D815F
:100830007E818F810E942D0B2D96E2E00C949B25EA
:10084000CE0101960E94AA028111EDCFF5CFCF9380
:10085000FC01C481C13089F4808191810E94C80863
:1008600092959F70963049F4863F39F080917301DC
:100870008C2780937301C0937201CF910895CF9319
:10088000C82F8823B9F08CEF8C0F813AA8F46C2F15
:1008900080910001909101010E94631D882329F03D
:1008A0008C2F0E94BA0B0E94590C8C2F0E94B20B05
:1008B0000E94590CCF91089580E28C0F8830D0F7B8
:1008C000C77081E001C0880FCA95EAF70E94030C47
:1008D000EFCF882341F09CEF980F913A28F40E94C3
:1008E000BA0B0E94590C089590E2980F9830D8F7EF
:1008F000877091E001C0990F8A95EAF7892F0E94CD
:10090000090CEFCF1F93CF93DF93182FEB010E94B9
:100910003F04209739F4812F0E946904DF91CF9121
:100920001F9108958FE99FE00197F1F700C0000043
:100930002197EFCF6AE070E0893311F460E570E051
:100940000E9482040895882321F00E94030C0E94D3
:10095000590C0895882321F00E94090C0E94590C1B
:100960000895B0E0A0E0E7EBF4E00C9478256C018A
:10097000C62F172FFC01D581068102950F700E94AA
:10098000F90BE82E882301F1DD2359F1812F807FB7
:10099000803471F090E29C0F983018F1011104C07E
:1009A000912F907E9032E9F0803611F4C63FC9F065
:1009B00080917A0282FF15C082E00E94BC0C0E94E6
:1009C000F90B91E0E82EE926B12EB2949FE0B9220E
:1009D000FBE0FB15C0F1EB2DF0E0E05FF94D0C946E
:1009E0006925E12CF1CF012F0F70812F807F11F04D
:1009F0000295007FDD2399F0002359F080E28C0FEF
:100A0000883010F0C11107C0802F0E94030C0E9493
:100A1000590C8C2F65C0802F0E94130CF8CF8C2F9F
:100A20000E946904002379F080E28C0F883010F076
:100A3000C11104C0802F0E94090C03C0802F0E94A6
:100A4000190C0E94590C2B2D2850330B24303105E2
:100A500020F40E94321D0E945103DD2339F0107FE3
:100A6000103611F4C63F11F00E94EC0BEE2089F015
:100A70000E94CF0B80FD0DC0F60115820E94C90BAC
:100A80000E94D007C6010E941A070E94C90B0E944B
:100A9000E007CDB7DEB7E9E00C949425212F2F7045
:100AA000F22E812F807F803219F0F29480EFF822AD
:100AB000CC2341F0C130D1F1DD2309F444C000233F
:100AC000F1F0A7CF80917A0282FD15C0DD2359F0A5
:100AD000FF2029F08F2D0E94030C0E94590C80E00A
:100AE0000E943F04B0CF80E00E946904FF2009F417
:100AF000AACF8F2DA0CFDD2369F0011104C08F2D67
:100B00000E94A304A0CF013009F09DCF8F2D0E9439
:100B1000370C99CF011197CF8F2D0E94AA048F2DEA
:100B20000E94430C8F2D0E94270C8DCFDD2321F0D6
:100B3000063008F088CFE3CF053008F084CF8F2D42
:100B40000E94AA0480CF0023D1F3C93369F43FEF98
:100B500087EE93E0315080409040E1F700C0000004
:100B60008C2F0E9469046FCFEFE3FCE93197F1F716
:100B7000F5CF812F8370A9F5D11165CF2C2F229548
:100B800026952770220F220F4C2F4F7050E0022E17
:100B900002C0440F551F0A94E2F790E080E0C4FFC2
:100BA00009C08FE090E002C0880F991F2A95E2F7F4
:100BB00080959095212F269526952370842B952B33
:100BC000223049F058F4213019F00E94A0073BCFA1
:100BD0000E94970738CF0E94A90735CF0E9494073B
:100BE00032CF8695DD2311F0812F8170882309F49F
:100BF0002ACF2C2F229526952770220F220F4C2FBB
:100C00004F7050E0022E02C0440F551F0A94E2F7C5
:100C100090E080E0C4FF09C08FE090E002C0880F40
:100C2000991F2A95E2F780959095212F2695269574
:100C30002370842B952B223049F058F4213019F081
:100C40000E940B0800CF0E940208FDCE0E941408EB
:100C5000FACE0E94B807F7CE012F0F70DD2329F0DE
:100C6000802F0E94D0078C2F4BCF8C2F0E94AA047C
:100C7000802F0E94E007E7CEC23F41F160F4C03F01
:100C8000B9F0C13F81F0DD2309F447C00111C1CEA5
:100C9000812F8F711FC0C33F01F1C43FA1F7809125
:100CA0007A0282FD24C0812F8F71DD2311F312C0DF
:100CB000DD2341F0053008F0C6CE812F8F710E94F0
:100CC000F207C1CE063008F0BECEF7CF812F8F716C
:100CD000D111CFCF0E94D007B6CEDD2329F0812FCE
:100CE0008F710E94C407AFCE0E94BF07ACCEDD2338
:100CF00051F0012F0F71802F0E94D00763E0802FE9
:100D00000E949E0CA0CE81E00E94BC0C023008F430
:100D10009ACE82E00E94BC0C96CE002379F0C933B3
:100D200041F4FFEF27EE33E0F15020403040E1F78F
:100D300015CF8FE39CE90197F1F710CF812F8F71C9
:100D400098CFE0E1EC0FE73090F5F0E0E45EF94D8C
:100D50000C946925DD2309F476CE8091730191E02E
:100D60008927809373016FCED09373016CCE81E09D
:100D70008D27F7CF81E0DD23A1F365CED11163CEBE
:100D80001092730160CEDD2319F00E94D30B5BCE6D
:100D90000E94DF0B58CEDD2339F080917201882349
:100DA000E1F2109272014FCE0530B8F24CCE809134
:100DB00072010023D9F0882341F08091730191E002
:100DC00089278093730110927201D11122CEEFE333
:100DD000FCE93197F1F700C000008C2F0E946904F4
:100DE00087E0F60111928A95E9F72DCE882309F460
:100DF0002ACED11128CE8091730191E0892780936A
:100E00007301CFCF0F931F93CF93DF93EC016881D2
:100E100079818D810E94D3088C010E941D080E9457
:100E20009307B801CE010E94B104DF91CF911F91C9
:100E30000F910895CF93DF93EC018C81882399F073
:100E4000CE010E94DB02811111C00E94F90B8823A0
:100E500051F08D81882339F080917A0282FF03C09E
:100E600082E00E94BC0CDF91CF910895CE010E94D8
:100E70000207CE010E94B602F6CF0E94200C0E940B
:100E8000590C08950E94C20B0E943D0708950E94CC
:100E9000100C0E944207089592959F70963091F031
:100EA00058F4925F9F70923058F4803F19F030F4FC
:100EB000883E30F481E008959A5FF4CF843FD1F307
:100EC00080E00895883EB0F3813FD1F7F3CFFC0175
:100ED0002481222339F0808191810E94C8080E94D8
:100EE0004C07089580E00895A6E0B0E0EAE7F7E057
:100EF0000C947F252696E2E00C949B25A7E0B0E0B9
:100F0000E4E8F7E00C947F252796E2E00C949B251B
:100F100008950E94880708950E9489079093970179
:100F200080939601089508950E948C07089520915A
:100F3000960130919701822B932B0E948C07089584
:100F40002091960130919701822393230E948C0770
:100F500008952091960130919701822793270E944E
:100F60008C0708950E94880708950E94B20708958B
:100F70000E94B5079093950180939401089590E0A5
:100F800080E00E94B807089521E030E0A90102C086
:100F9000440F551F8A95E2F7CA010E94B8070895C9
:100FA00021E030E002C0220F331F8A95E2F78091E2
:100FB000940190919501822B932B0E94B80708957C
:100FC00021E030E002C0220F331F8A95E2F720951E
:100FD00030958091940190919501822393230E94F2
:100FE000B807089521E030E002C0220F331F8A9530
:100FF000E2F78091940190919501822793270E94B6
:10100000B80708952091940130919501822B932B7C
:101010000E94B80708952091940130919501822390
:1010200093230E94B807089520919401309195016F
:10103000822793270E94B80708950895262F2770C6
:1010400091E001C0990F2A95EAF723E0769567951C
:101050002A95E1F7660F771F660F771FFA01E60FF3
:10106000F71F50E040E0682F70E08191DF01119799
:101070009B01042E02C0369527950A94E2F7217051
:1010800021952827292328272C934F5F5F4F443031
:10109000510559F70895A82FA77023E096958795D5
:1010A0002A95E1F7880F991F880F991FFB01E80F18
:1010B000F91F50E040E080E0219130E00A2E02C0AC
:1010C000369527950A94E2F721703327042E01C044
:1010D000220F0A94EAF7822B4F5F5F4F443051058D
:1010E00059F70895262F9A3070F4863060F4682FEF
:1010F00070E086E0989F600D711D112444E751E077
:10110000822F0E941E080895292F9A3068F4863095
:1011100058F490E064E771E036E0239F800D911D64
:1011200011240E944B08089580E00895B0E0A0E0EB
:10113000ECE9F8E00C9478257C0100919401109181
:1011400095018091960190919701082B192BCFE082
:10115000D0E0CC24C394D12CBC2EC6010C2E02C0EE
:10116000880F991F0A94E2F780239123892B49F471
:10117000219790F7B12C8B2DCDB7DEB7E9E00C9419
:101180009425B7018C2F0E94C50F019789F3F3CFE7
:10119000CF93DF93EC010E949608BE010E94C50F19
:1011A000DF91CF9108951F93CF93DF93EB0190913F
:1011B0007101992339F0CB010E94C808DF91CF91CA
:1011C0001F910895882369F0CB010E949608182F7B
:1011D000682FCE010E947208BE01812F0E94C50FA8
:1011E000EDCFCB010E948408182FF6CF1F93CF9329
:1011F000DF93C091980117E0809199018C1304C08E
:10120000DF91CF911F910895D0E01C9FF0011D9FA9
:10121000F00D1124E656FE4F208131814281538129
:101220006481758186810E947E072196C770E4CF14
:101230002091D2013091D3014091D4015091D50138
:101240006091D6017091D7018091D8010E947E07EC
:101250000895CF93DF938091D801807F09F04DC02E
:101260008091D701882309F448C0E09198015091FA
:101270009901C091D301D091D2016091D4017091B4
:10128000D50147E05E17C9F18E2F90E0E49FF00191
:101290001124E656FE4F2481222391F1489FF0014C
:1012A000499FF00D1124DF01A656BE4F11962C91D7
:1012B00011972C1325C02C912D1322C015962C911B
:1012C000159721111DC012962D913C91261B370BAD
:1012D00024363105A8F48091D8018F708061809305
:1012E000D801E056FE4F80818F708061808382ED4F
:1012F00091E00E941A070E94F608DF91CF910895AD
:10130000FC013196E770BECF482F20919801909153
:10131000990157E0291302C080E0089530E0529F00
:10132000F001539FF00D1124E656FE4F81816813A2
:1013300006C08081481303C085818111EECF2F5FE5
:101340003F4F2770E7CFA4E1B0E0E9EAF9E00C9461
:1013500075258C0186E0F801DE011F9601900D9243
:101360008A95E1F7F8018481E58092EDA92E91E05C
:10137000B92E9091D60191111FC08823D1F0EE2093
:10138000A9F0C8010E946707F82E882379F087E04A
:10139000F801D50101900D928A95E1F7C5010E94EF
:1013A00027040E9429090E9418095FC0C8010E94F1
:1013B0001A07FF24F39459C0C080D18082809380A3
:1013C000F090D7012091D4013091D501A401421BA6
:1013D000530BFF2009F4F9C04436510508F0A7C0AB
:1013E000882309F442C09091D3018091D801282F1D
:1013F000207F09F05CC09D1116C09091D201C912E6
:1014000012C0E1104EC08F7080618093D8010E949D
:10141000180982ED91E00E941A078091D801F80125
:101420008683F12C22C0E1103CC06D2D8C2D0E94D2
:1014300084096D2D8C2D0E948409E82E8111F1CF35
:10144000CF86D88A8F8598890E94C808292F22952F
:101450002F70243078F49F702230A8F09923B9F0CF
:10146000F8019681907F99F4FE2C8F2D6496ECE024
:101470000C9491252A5F2F70223068F0C8010E94D9
:101480001A07EF2CF1CF992311F0882369F3805EBE
:10149000883050F3F3CF803F38F3815F833070F7AB
:1014A000E3CF8091D80181608093D801BACF9D119C
:1014B00013C09091D201C9120FC0E1100DC08683F4
:1014C000C8010E941A0787E0F801A2EDB1E001907F
:1014D0000D928A95E1F767CFC8010E9467078823BC
:1014E00009F464CFEE2009F461CF8091D8018032F5
:1014F00088F02091D2013091D301398728879B86CB
:101500008A869091D6019C871D868E87CE0108968B
:101510000E941A0787E0F801A2EDB1E001900D9258
:101520008A95E1F70E9429090E94180942CF9091FB
:10153000D801292F207FA1F4682D9A8A898AA601D3
:101540007A899E2D0E94740782ED91E00E941A070D
:1015500087E0F50111928A95E9F70E94180961CF99
:10156000882309F482CF8091D3018D1110C080911E
:10157000D201C8120CC0E1100AC09683C8010E94B3
:101580001A0787E0F50111928A95E9F76ECFC80135
:101590000E946707882309F409CFEE2009F406CFDB
:1015A0008091D801803208F4B5CF2091D2013091DA
:1015B000D3013A8329839C828B829091D6019D83AB
:1015C0001E828F83CE010196A3CF44365105B8F514
:1015D000882309F4EECEFE2CEE2009F4E7CE8091AC
:1015E000D3018D111EC08091D201C8121AC0809102
:1015F000D80180FD0DC0982F907F51F08683903FD9
:1016000009F45ECF982F907F905F8F70892B57CF12
:1016100087E0F801A2EDB1E001900D928A95E1F723
:1016200024CFC8010E946707811174CF8091D8012F
:1016300081608093D801C8010E941A0716CF682DD7
:101640009A8A898AA6017A899E2D0E94740787E06A
:10165000F50111928A95E9F7A6CEAEE0B0E0E3E39A
:10166000FBE00C947E25288739874A875B876C8747
:101670007D878E87CE0108960E94A3098823B1F04A
:101680006C85662341F0288539854A855B857D8593
:101690008E850E947E0717E08091980190919901B4
:1016A00089133DC02E96E3E00C949A2587E0FE0155
:1016B0003896DE01119601900D928A95E1F78C859E
:1016C000882349F32091990130E0C9010196877080
:1016D0009927409198014817190699F097E0929F31
:1016E000D001939FB00D1124A656BE4FFE01319636
:1016F00001900D929A95E1F7809399010E94F60866
:10170000CACF0E944707109299011092980187E072
:10171000E2EDF1E0DF011D928A95E9F7BCCF819FF0
:10172000C001112486569E4F0E94A309882309F404
:10173000B9CFE09198011E9FF0011124E656FE4FAB
:1017400020813181428153816481758186810E942B
:101750007E078091980190E0019687709927809389
:1017600098019ACF682F80910001909101010E9409
:10177000991D0895682F80910001909101010E94A8
:101780009C1D089580910001909101010E949F1D70
:1017900008958091E20186958695869508958091B9
:1017A000E2018770089582E08093E10181E08093F7
:1017B000730108951092E1011092730108958091D0
:1017C000E101823021F481E08093E10108958330CA
:1017D00011F40E94DA0B08958091E101823021F426
:1017E00083E08093E1010895813011F40E94DA0BC7
:1017F00008959091E201977081E009F480E00895E6
:101800008091EE0108959091EE01892B8093EE0175
:10181000089580959091EE0198239093EE0108959C
:101820001092EE0108959091ED01892B8093ED01C6
:10183000089580959091ED0198239093ED0108957E
:101840001092ED01089508950E94230C089590913F
:10185000E301292F282331F0809589238093E30128
:101860000E94240C089508950E94330C08959091CD
:10187000E401292F2823281729F0982B9093E401BD
:101880000E94340C08959091E401292F282331F00F
:10189000809589238093E4010E94340C08958091FF
:1018A000E401882329F01092E40180E00E94340CC6
:1018B0000895CF93DF93E0910001F09101018091B1
:1018C000EE018083E0910001F0910101808190910F
:1018D000ED01892B80839091E401992381F0E091BF
:1018E0000001F09101018081892B808380910001AA
:1018F000909101010E94511D81110E944F0CC091D5
:101900000001D091010148E050E069ED71E0CE01A5
:101910000E94A625892B59F088E0FE01A9EDB1E0CF
:1019200001900D928A95E1F7CE010E94461DDF914C
:10193000CF91089508950E949A0C089590917A028B
:1019400092FF11C098E0899F90011124622B60934F
:10195000E2010E94D0078091E201869586958695E6
:101960000E949B0C08950E94D00708951092E201F6
:1019700080E00E949B0C08959091E201809589235C
:101980008093E201282F277069F4891759F090910C
:101990007A0292FF07C08695869586950E94E00799
:1019A0000E94B60C089590917A0292FB222720F9AA
:1019B000281769F080FB92F990937A02809179025E
:1019C00090917A020E941B0D82E00E94BC0C089547
:1019D00080917A0282FB882780F991E089270E9412
:1019E000D30C089581E00E94D30C089580E00E94FA
:1019F000D30C08956FEF7FEF90E080E00E94F82510
:101A0000089590E080E00E94C42521E0863E9E4F2C
:101A100009F020E0822F089582E090E00E94BC252A
:101A2000089583E090E00E94BC25089584E090E052
:101A30000E94C4250895BC0184E090E00E94F8252E
:101A40000895AB01BC018FE090E00E94EC25089561
:101A5000AB01BC0183E190E00E94EC25089560E0B9
:101A600070E0CB010E94280D089560E070E0CB018A
:101A70000E94210D0E942F0D0895A8E0B0E0E3E43C
:101A8000FDE00C947F2566EE7EEF90E080E00E9402
:101A9000F82560E082E090E00E94DA2560E083E0D3
:101AA00090E00E94DA25109297011092960160E072
:101AB00074E184E090E00E94F82560E086E090E028
:101AC0000E94DA256FEF87E090E00E94DA2540E07F
:101AD00050E0BA0188E090E00E94EC2560E084E2EA
:101AE00090E00E94DA2560E087E190E00E94DA252C
:101AF00060E08CE090E00E94DA2560E08DE090E00C
:101B00000E94DA2519821A821B821C821D821E8283
:101B10001F82188648E050E068E170E0CE0101962F
:101B20000E94CA2540E050E0BA0180E290E00E94A5
:101B3000EC250E94350D2896E2E00C949B250E942E
:101B40003D0D0895682F8EE090E00E94DA250895FB
:101B5000A6E0B0E0EEEAFDE00C947D250E944B1E6D
:101B60008C018091EF019091F0018017910781F035
:101B700019821A820E944B1E682F49815A81792F3F
:101B800080E090E00E94F0031093F0010093EF01D9
:101B90002696E4E00C9499250E94D51060930302E8
:101BA0007093040280930502909306026093FF01F4
:101BB00070930002809301029093020208950E94A4
:101BC000D5106093030270930402809305029093F2
:101BD00006026093FB017093FC018093FD019093DA
:101BE000FE010895089508950E94F30D0895089543
:101BF0000E94F70D089581E008958FEE90E10E9414
:101C0000281D0E94F20D0E94F40D08950E94BB123F
:101C10000895089508950E94090E0E940A0E0895DD
:101C20000E94F2100E94500308950E94421E0E94DA
:101C3000AF100E94D6120E944B180E941C120E94E4
:101C4000100E0E94111580E00E948F150E94E01274
:101C50000E94F80D0895A6E0B0E0E1E3FEE00C94E8
:101C600075250E94FB0DC82E811111C00E94A80D80
:101C7000C12C0E94BB120E94CF18882309F45DC0BA
:101C80000E94DF0D0E9417170E94F2155AC00E9491
:101C90003F1281EFA82E81E0B82E750110E0F70108
:101CA00001917F01812F0E9418111F5F1A3009F4E2
:101CB00041C00817A1F38091070281FD0E941E1107
:101CC0000E94060E982E10E088248394812F0E9493
:101CD0001811082FF50181915F01081729F1F12CE6
:101CE000EE24E394D02ED8268D2D8E21A9F09920B4
:101CF00099F0F9821A830E944B1E9C838B838D82FC
:101D000091E0802F8E2109F490E049815A816B8106
:101D10007C818D810E94F003F394EE0CF6E0FF12BB
:101D2000E3CFF501319700831F5F1A3079F60E94E7
:101D3000CC0D9FCF0813BFCF99CF0E941717C110AA
:101D4000A3CF0E9463032696ECE00C9491250F9399
:101D50001F93CF93DF930E94CA0FEC01C03282E53C
:101D6000D80708F040C0C11582E5D80708F094C034
:101D7000C11580E2D80710F5C11581E0D80708F039
:101D80007AC0C03ED10588F4CD3CD10508F071C0C1
:101D9000C130D10569F0209759F0CE010497813AFE
:101DA000910530F0D0E0C0E003C0C83ED105D0F7C7
:101DB000CE01DF91CF911F910F910895C11580E55C
:101DC000D80708F0ACC08E011127C11580E4D807F0
:101DD00008F4BFC0C8010E94CA0FCC27DF70C82B0F
:101DE000D92BD06AE5CFC03A82E5D80720F5C038B4
:101DF00082E5D80708F080C0C03682E5D80708F031
:101E000066C0C03482E5D80708F45AC02C2F269546
:101E10002695277080E2289F900111248C2F8370D3
:101E2000C1E0D0E002C0CC0FDD1F8A95E2F7C22BE3
:101E3000D32BDC68BDCFC03E82E5D80760F4C03C40
:101E400082E5D80708F45FC0DC2FCC27CC27DF71F0
:101E5000C06FD06AADCFCE0196558F3F910511F07E
:101E600008F0A0CFCE0199270E94CA0FEC01D066DE
:101E70009FCFD0659DCF8D2F0E946C10182FCE0163
:101E800099270E94CA0FC12FD0E0DC2FCC27CC2786
:101E9000DF71C82BD92B8CCF2C2F2695269580E26D
:101EA000289F900111248C2F8370C1E0D0E002C0E4
:101EB000CC0FDD1F8A95E2F7C22BD32BDD6878CFDC
:101EC000CF71D0E0DC2FCC27C16FD06A71CF2C2F1F
:101ED00026952695277080E2289F900111248C2F4B
:101EE0008370C1E0D0E002C0CC0FDD1F8A95E2F71D
:101EF000C22BD32BDA685CCFCF71D0E0DC2FCC279C
:101F0000C46FD06A55CF8C2F8F710E946C10C82F70
:101F1000D0E0DC2FCC27CC27DF71D06249CF8C2FCB
:101F20008F710E946C1055E0D695C7955A95E1F7D0
:101F3000CF70D0E0DC2FCC27282F30E084FF05C005
:101F400044E0220F331F4A95E1F7C22BD32BD0690F
:101F50002FCF8D2F8F710E946C10C82FC8010E9447
:101F6000CA0FD0E0DC2FCC27CC27DF71C82BD92BB0
:101F7000D4CF462F7A3030F4663020F4672F0E9499
:101F80005D02089590E080E008950E94B90F0E94DC
:101F9000A70E089582389105B9F1B0F48133910507
:101FA00009F47DC048F48932910509F46DC08A3284
:101FB000910509F47BC008958533910509F45FC04C
:101FC0008933910509F10895833E9105D9F138F4DB
:101FD000803E910529F1823E910579F10895863E72
:101FE0009105D9F1873E910509F43EC0843E9105E3
:101FF00041F520917A0221FF24C08091790284FD6D
:1020000019C087EE90E0089520917902237009F0BD
:102010005AC020917A0223FF14C089E290E008950B
:102020002091790220FD38C030917A0230FF09C03A
:1020300024FF43C090E080E008952091790222FDC2
:10204000F7CF08952091790222FD3AC030917A02AB
:1020500030FD39C024FFF5CFEDCF2091790223FF69
:10206000F0CF24FDE7CFCDCF2091790223FD2EC004
:1020700030917A0231FFEECF84EE90E00895209106
:10208000790225FFDECFC9CF2091790225FD21C03D
:1020900020917A0223FFD5CF89E390E0D2CF20911F
:1020A000790226FFCECF8AE290E00895209179024E
:1020B00026FFC7CF81E390E0089583EE90E0089576
:1020C00082EE90E0089580EE90E0089586EE90E034
:1020D000089585E390E008959091790292FF06C0FB
:1020E000282F28712830F9F4877F846093FF06C079
:1020F000282F28712831F1F4877E846120917A029B
:1021000020FF06C0382F38713830D9F4877F8160BE
:1021100021FF06C0282F28712831D1F4877E8161E4
:1021200094FD877E0895282F24712430F9F68B7F43
:102130008860DCCF282F2471243101F78B7E8861E1
:10214000DDCF382F3171313019F78E7F8860E0CFC5
:10215000282F2171213121F78E7E8861E1CF1092E5
:10216000750210927602109277021092780208950A
:10217000CF92DF92EF92FF926B017C010E94BB1223
:1021800081110EC00E94571EC61AD70AE80AF90A22
:10219000C0927502D0927602E0927702F0927802B5
:1021A000FF90EF90DF90CF9008950F931F930E94C0
:1021B000BB12882329F00E94571E1F910F9108958A
:1021C0000E94571E009175021091760220917702AD
:1021D00030917802600F711F821F931FEECF80E055
:1021E000089508950E94010D811102C00E949F0D63
:1021F0000E940C0D809307020E94160D90937A02A4
:10220000809379020E94F1100E94110D90E00E94CB
:10221000940780919401909195010E94B5070895CB
:1022200008950E941011089508950E9414110895B0
:10223000E82FF0E0EA57FD4F80810895089580EA85
:102240008A95F1F7089500C008950E941F1108951E
:1022500008950E9428110895A5E0B0E0E2E3F1E1BD
:102260000C947B250E94BB12F82E6091900288236B
:1022700009F440C085E0E82E8E010F5F1F4FF80182
:102280008E2D11928A95E9F7862F90E0B8018A5732
:102290009D4F0E94EE128823B9F080917B0290E05E
:1022A00045E050E0B8018A579D4F0E94A62521E0E5
:1022B00020930802892B91F4F12C0E9415118F2D87
:1022C0002596E6E00C949725809108028823A1F3D7
:1022D000F8011192EA94E9F710920802A0917B02AA
:1022E000B0E0AA57BD4F85E0F80101900D928A95A4
:1022F000E1F7E3CF70E06A577D4F80917B0290E079
:102300008A579D4F0E9475130E942911D8CFF894C7
:10231000E82FE295EF70F0E031A1282F2F7081E0D7
:1023200090E001C0880F2A95EAF7982F90959323A3
:1023300091A392A1892B82A3789408950F931F9360
:10234000CF93DF93C3E4D1E089918F3F11F00E94D6
:10235000871181E0C834D807B9F7CDE3D1E003E4B1
:1023600011E089918F3F11F00E9487110C171D0712
:10237000C1F7DF91CF911F910F910895B0E0A0E0D8
:10238000E4ECF1E10C947925EC01D62E062F10E057
:10239000C8018D5B9E4F7C01FC0180818F3F09F459
:1023A00044C0F894E82FE295EF70F0E091A18F70AF
:1023B00021E030E001C0220F8A95EAF7892F822BB5
:1023C00081A382A12095282322A378940E9423111F
:1023D000EDE3F1E031E0C12C21912F3F59F1A22F23
:1023E000A295AF70B0E090968C9190E02F7002C0F3
:1023F000959587952A95E2F780FD1CC0832FC82A02
:10240000330F81E0E334F80739F7F70180818F3F1C
:1024100011F00E94871161E0C11001C060E08D2DB4
:102420000E942511C00FD11FC882CDB7DEB7E8E0EA
:102430000C94952580E0E3CF809102018091020108
:1024400095E0811190E09093900285E0891B809344
:102450007B020E949E118AE0E6E8F2E0DF01982FFD
:102460001D929A95E9F7ECE7F2E0DF011D928A955B
:10247000E9F785E00E947D120E9411110895AAE0FB
:10248000B0E0E5E4F2E10C947C258E010F5F1F4F74
:102490008AE0F80111928A95E9F7F12C6F2DC801B5
:1024A0000E94BE11F394F5E0FF12F8CF4AE050E02D
:1024B000B8018CE792E00E94A62521E0009709F47C
:1024C00020E0892B41F08AE0F801ACE7B2E001900E
:1024D0000D928A95E1F76091900270E06A577D4F06
:1024E00045E08CE792E00E947E12182F0E942C118A
:1024F000812B2A96E5E00C9498250895CF92DF92DF
:10250000EF92FF920F931F93CF936C017B01042FE7
:10251000222349F081E080930B020E944B1E90938E
:102520000A0280930902C0910B02C1110AC0C0E0E7
:102530008C2FCF911F910F91FF90EF90DF90CF9054
:1025400008958091090290910A020E94631E0597E6
:1025500070F310E0A801B601C7010E94A625892BDF
:1025600041F0A801B601C7010E94B32510920B02E9
:10257000DFCFC0E0FBCF80910E02811107C00E9427
:102580003425882351F081E080930E0281E0909100
:102590000E02913009F080E0089582E080930E02EF
:1025A0000E942F25F3CF0E94BB1208950E94D312E0
:1025B000809302010E94BB1281110E94241308958E
:1025C0000E94BB12811102C00E942713089581E06E
:1025D00090910F029A3008F080E008950F931F93B6
:1025E000CF93DF93EC018B0180910F028A30B8F416
:1025F000B801CE010E947213C82F811122C08091B0
:102600000F028F3FB9F40E944B1E90930D028093EE
:102610000C028C2FDF91CF911F910F910895809123
:102620000C0290910D020E94631E843F914000F7BE
:10263000C0E0EFCF8F5F80930F028A3020F7C1E0B8
:10264000E8CF10920F02E5CF0E94C61B08950E94AA
:10265000C91B0895B0E0A0E0E0E3F3E10C947A2513
:102660007901C82F880FDD0B41155105A9F0FE0136
:1026700093E0EE0FFF1F9A95E1F7ED5FFE4F81812A
:102680009281805F9D4F208130E04217530708F40C
:102690009A01A9010E94B325CE010E94B21CD82E36
:1026A0008823D1F001151105B9F083E0CC0FDD1FAF
:1026B0008A95E1F7FE01ED5FFE4F438150E004177C
:1026C000150708F4A801CD5FDE4F6C817D81605F46
:1026D0007D4FC7010E94B3258D2DCDB7DEB7E7E052
:1026E0000C9496250E948E1408950E94AF140895AC
:1026F000A4E0B0E0EEE7F3E10C947D2560912D02BB
:1027000070912E0280912F02909130020E94721ED1
:1027100011E0643671058105910518F10E94D5100C
:102720006E5F7F4F8F4F9F4F69837A838B839C832C
:1027300010E000E030E020E044E050E0BE016F5FD8
:102740007F4F84E00E942A13182F882351F00E94A3
:10275000571E60932D0270932E0280932F02909348
:102760003002812F2496E4E00C949925A1E0B0E09A
:10277000ECEBF3E10C947425762E4A0159016801C3
:1027800001E010E09E012F5F3F4F50E040E070E01D
:1027900060E00E942A13182F882399F1F4016081C8
:1027A0007181828193810E94721E64367105810558
:1027B000910500F18701950150E040E070E060E094
:1027C000872D0E942A13B82EB701C6010E94121548
:1027D00011E09981981310E01B2139F00E94571ED7
:1027E000F4016083718382839383812F2196EDE0CE
:1027F0000C949025B701C6010E9412159981891386
:10280000D9CFA701B601C5010E94B325EECFA1E043
:10281000B0E0EDE0F4E10C947B25009148011091CB
:102820004901095F1F4FEE24E394F12C9E012F5FB5
:102830003F4F49E252E063E082E00E94B613182F56
:10284000882321F0CE0101960E946A19812F2196DA
:10285000E6E00C949725A5E0B0E0E1E3F4E10C9408
:1028600079256B0100914801109149010F5F1F4FBD
:1028700085E0E82EF12C9E012F5F3F4F45E252E0AC
:1028800061E080E00E94B613882349F095E0FE01E4
:102890003196A0E2B2E001900D929A95E1F795E0B1
:1028A000E0E2F2E0D60101900D929A95E1F72596CB
:1028B000E8E00C949525B0E0A0E0E1E6F4E10C94AA
:1028C00077257C015B016A010E94E71201E010E0BC
:1028D000882311F00AE010E0C1E0D0E0B501C701A3
:1028E000F6010995811104C021960C171D072CF4DF
:1028F000CDB7DEB7EAE00C949325CC9F9001CD9F35
:10290000300D300D112490E080E045E34A95F1F759
:102910000000019682179307C1F7E0CF0F931F9332
:10292000CF93DF93EC018B014BE254E10E945B14E7
:10293000811106C080E0DF91CF911F910F91089522
:1029400047E054E1B801CE010E945B14882391F363
:1029500048E753E1B801CE010E945B14ECCFA1E03F
:10296000B0E0E5EBF4E10C947D2500914801109175
:102970004901C801019625E0FB01DC0101900D929F
:102980002A95E1F765E070E00E941215F801808356
:10299000CE0101960E945F198981F801878361E069
:1029A00070E0CE0101960E941215F80186836085C1
:1029B00071858285938500911C0210911D022091E2
:1029C0001E0230911F02601771078207930751F0B2
:1029D00060931C0270931D0280931E0290931F024D
:1029E0000E94B8102196E4E00C9499250E941720CB
:1029F0000E94150E0E94242008950E9429200E9402
:102A00002B0E0E94432008950E94E41D0E94FD1F8A
:102A10000E94FD0D0E94F6140E94FD140E940B0EF0
:102A2000FBCF0895FC01680F791F8FEF91E3E61744
:102A3000F70709F408952191822728E030E087FF05
:102A400006C0880F892721503109C9F7F0CF880FB8
:102A5000FACFAB0124E630E0BC0188E70E94201BDE
:102A600021E0892B09F020E0822F0895B0E0A0E05A
:102A7000ECE3F5E10C9479256C017B0164E670E0F0
:102A800088E70E94861A8C01E601EC0CFD1CCE152D
:102A9000DF0561F40E94681B81E00115110509F052
:102AA00080E0CDB7DEB7E8E00C94952517FDF2CFB6
:102AB000FE01849164E670E00E94F21A8C01219676
:102AC000E6CF0F931F939B0104E610E0AC0160E496
:102AD00088E70E94411B21E0892B09F020E0822F2A
:102AE0001F910F9108950E94801A089508950E94E1
:102AF00076150895E1E9F2E080E092E0DF019C01C3
:102B00001D9221503040E1F7F0939804E093970430
:102B10008FEF9FEF90935702809356020895CF93C3
:102B20000E9476150E9477158093520280FD11C095
:102B300080E8809351020E9473156BE070E087E992
:102B400093E00E943615811106C0C0E08C2FCF9112
:102B5000089580E2EECF8091520265E070E081FD41
:102B600027C082E993E00E943615882371F36DE057
:102B700070E080E893E00E943615C82F882329F37F
:102B80000E94571E605A75418F4F9F4F6093930468
:102B90007093940480939504909396040E947A1500
:102BA00081E0809355028093540210925302CECF5D
:102BB0008DE893E0D8CF2091510236E0839FC00189
:102BC0001124629F800D911D1124811522E092072E
:102BD00014F090E080E08F569D4F9093980480937E
:102BE0009704089580915502811103C08091540289
:102BF00008950E94571E605A75418F4F9F4F6093F2
:102C00009304709394048093950490939604809118
:102C100054028111EBCF62E070E08EE793E00E94F6
:102C20003615882319F381E080935402DFCFB0E09A
:102C3000A0E0EDE1F6E10C947325809156029091AD
:102C40005702892B09F4B6C080915502882309F4F4
:102C5000B1C0809153028111ADC00E94F215209144
:102C60005602309157022115310509F4A3C090E0B6
:102C700041E050E0092F10E0EA01092E02C0CC0F1C
:102C8000DD1F0A94E2F7BE0162237323672B11F460
:102C90009F5FF0CF8091520280FF91C0990F990FF2
:102CA000990F90932D0110923001995F90932E010E
:102CB00083E08093310167E070E08BE291E00E9455
:102CC0002915882309F476C0980145E0220F331FA7
:102CD0004A95E1F78091520280FF83C0E1E3F2E080
:102CE00080E2DF011D928A95E9F70EE411E08AE4A3
:102CF000E82E81E0F82E97E0992E88248394D8015D
:102D0000ED918D01D7016D917D01620F732F711DC2
:102D10006F567D4FF0E0EF5CFD4F50E040E0792CC6
:102D2000741AA82C042E01C0AA0C0A94EAF76B01AD
:102D300080E0D6019D916D019A21A72DA81BA77057
:102D4000BA2E0A2E000CBB0B692E01C0660CBA9479
:102D5000EAF7B62CB195A195B109A770BB2701C0C0
:102D60009695AA95EAF7A62DA92B90819A2B908388
:102D70008F5F8830F1F64F5F5F4F319648305105D5
:102D800071F681E00235180709F0B9CF60E270E012
:102D900081E392E00E946115882361F0C095D0958F
:102DA0008091560290915702C823D923D09357029D
:102DB000C0935602CDB7DEB7EEE00C948F25929506
:102DC000990F907690932D01980136952795369519
:102DD000279520933001915E90932E01209331012D
:102DE0006ACF60E270E0C9018F569D4FD3CF8091CA
:102DF000540290915502911103C091E089270895E2
:102E0000882369F062E070E08CE793E00E94361559
:102E1000811103C080915402089510925402809150
:102E20005402EBCF81E008950E94121708950F938A
:102E30001F9380915502882379F18091910490919C
:102E400092040E94631EC29760F00E944B1E9093F2
:102E500092048093910460E080E00E94DB150E9460
:102E600014170E941716809154028823A9F00E941B
:102E7000571E009193041091940420919504309171
:102E80009604601B710B820B930B6F3F7F4F8F4F2C
:102E90009F4710F40E94F7161F910F910895CF934A
:102EA000DF93EC01FB018581882309F4D2C09E01E8
:102EB00030572332310508F0B2C00E94160D9093AE
:102EC0007A0280937902FE01E150F047E232F10587
:102ED00020F4ED5DF94D0C946925809179028160B3
:102EE0008093790293C080917A02886080937A02FD
:102EF0008DC0809179028260F3CF809179028460E5
:102F0000EFCF809179028860EBCF80917A02816067
:102F1000EDCF80917A028260E9CF80917902806161
:102F2000DFCF809179028062DBCF8091790280646B
:102F3000D7CF0E944707809179028068D1CF8091D6
:102F400079028C60CDCF80917A028360CFCF80915F
:102F500079028E7FC5CF80917A02877FC7CF80911B
:102F600079028D7FBDCF809179028B7FB9CF80911F
:102F70007902877FB5CF80917A028E7FB7CF80911B
:102F80007A028D7FB3CF809179028F7EA9CF809115
:102F900079028F7DA5CF809179028F7BA1CF0E948E
:102FA0004707809179028F779BCF80917902837F49
:102FB00097CF80917A028C7F99CF8091790282FBA2
:102FC000992790F921E0922790FB82F990FB83F9F1
:102FD00087CF80917A02982F909591708E7F892B60
:102FE00090FB81F983CF90917902892F8F7B96FF97
:102FF000806476CF0E94470790917902892F97FBD2
:1030000087F980586DCF81E00E94A20D80917902EE
:1030100090917A020E941B0D0E94470780E0DF9189
:10302000CF91089580E0F0CF90917902892F8F7E23
:1030300094FF806155CF90917902892F8E7F90FF08
:1030400081604ECF90917A02892F877F93FF8860AD
:103050004DCF81E0E4CF8FE891E00197F1F700C018
:103060000000089581E00895CF93DF93D62F0E944A
:103070003218C82F882341F06AE070E08EE4D11145
:1030800001C08BE40E9482048C2FDF91CF910895C0
:103090000E94BB1208950F931F93CF93DF939091DB
:1030A000020181E0982790935C02282F291B20932E
:1030B0005B029091020180935D02909102018093E6
:1030C0005A0280910201811106C084EF809333017E
:1030D00085EF8093320120913301E22FE295EF706A
:1030E000F0E061A12F7081E090E0AC0101C0440FDD
:1030F0002A95EAF7342F3095362331A322A1242BC9
:1031000022A320913201E22FE295EF70F0E031A18D
:103110002F7001C0880F2A95EAF7982F9095932376
:1031200091A392A1892B82A30E942B1860915D022A
:1031300040E652E0C3E3D1E002E311E0FA0126C029
:103140002991822F82958F7090E0DC0190968C916E
:1031500090E02F7002C0959587952A95E2F78170CF
:10316000D8019D918D01292F22952F7030E0D90132
:1031700090962C9130E09F7002C0359527959A95D6
:10318000E2F790E020FD92E0892B81938E2F841B43
:103190008617B0F2DF91CF911F910F910895B0E0A3
:1031A000A0E0E5EDF8E10C94792510E000E082E084
:1031B000C82ED12C80915D02181730F0802FCDB72A
:1031C000DEB7E8E00C949525C12FD0E0FE01ED5C60
:1031D000FE4F8081E82FE295EF70F0E0E0A1F0E093
:1031E0008F7002C0F595E7958A95E2F7E170DE01F0
:1031F000AE5CBE4F4C91A42FA295AF70B0E09096FC
:103200008C9190E04F7002C0959587954A95E2F7B2
:1032100080FD4DC080E08E2BDE01A05ABD4FEC91A9
:103220009E2F9370981709F440C0EE0FEE0FE82B15
:10323000EC93E0905C02E10EEF70F0E0EE5AFE4F8E
:10324000C25ADD4F80819881890F8883F12C8230AA
:1032500084F0EE2DF0E0E85AFD4F80818F5F80838F
:103260000E944818F82E882321F160E08E2D0E94DC
:10327000341888818F3F84F4EE2DF0E0E85AFD4F3A
:103280008081815080830E944818F82E8823A1F005
:1032900061E08E2D0E9434188881082E000C990B55
:1032A000B6010E94552588830F291F5F83CF82E0D6
:1032B000B2CFFF24F394DDCFFF24F394EDCF409100
:1032C0005D0250E060915C0270E0685A7D4F0E94A0
:1032D000B3250895B0E0A0E0E0E7F9E10C9479258A
:1032E0006C01D0E080E090915A02D91740F0811132
:1032F0000E94DF0DCDB7DEB7E8E00C949525F09085
:103300005B02FD0E0F2D10E0085A1D4FF601ED0F68
:10331000F11DC081F8019081C91BEC2E1E1444F0F0
:103320009C2FC7FD90E0C91BC1110DC0DF5FDBCF33
:10333000EA94F80180818F5F808360E08F2D0E9486
:10334000341881E0EBCFCF5FF8018081815080831A
:1033500061E08F2D0E94341881E0E6CFCF93DF9398
:10336000EB0186319C4711F50E94000C9D81992349
:1033700099F08A7A91E009F490E0909362028111C9
:1033800009C089E20E94B20B0E94590C80E0DF91D3
:10339000CF91089585E3F6CF80916202811104C038
:1033A00089E20E94BA0BF0CF85E3FBCF81E0EFCF3B
:1033B0000F931F93CF93DF93C42FD22FFC018581EE
:1033C0008823C9F0409365020E944B1E90936402CB
:1033D0008093630280E28C0F883040F4C77081E0F4
:1033E00001C0880FCA95EAF70E94A304DF91CF912C
:1033F0001F910F91089510916502141332C08091AE
:103400006302909164020E94631E8436910548F520
:10341000C0E2CD0F1D17B9F080E2810F883040F473
:10342000177081E001C0880F1A95EAF70E94AA047C
:10343000C83048F481E09D2F977001C0880F9A959D
:10344000EAF70E94A304802F0E949A04C83070F605
:10345000D77081E001C0880FDA95EAF70E94AA04CC
:10346000C5CF80E28C0F883008F6C77081E001C0BC
:10347000880FCA95EAF7F2CF0F93DB0188519C477A
:1034800087309105A0F5FC01EB5BF94D0C946925A3
:1034900006E221EE41EE6AE17CE7CD010E94D819F7
:1034A00080E00F91089507E225EE45EE6BE17CE7A1
:1034B000F4CF06E221EE40EE68E17CE7EECF07E2D2
:1034C00025EE44EE69E17CE7E8CF06E221EE42EE2C
:1034D0006CE17CE7E2CF07E225EE46EE6DE17CE7AA
:1034E000DCCF08E221E045EE6EE17CE7D6CF159611
:1034F0008C91882319F010926502D3CF81E0D1CF4F
:103500001092B9008CE08093B8000895B0E0A0E07C
:10351000ECE8FAE10C947625B82EEB010E944B1EE4
:103520006C01EE24E394F12CC431D10560F025E068
:10353000E22EF12CCF3FDC0731F0CE0164E170E0E8
:103540000E9441257B0184EAA82E94E8992E1092CE
:10355000BC00A092BC000E944B1E8C018091BC005C
:1035600087FF0DC08091B900887F8830F9F0809185
:10357000B900887F8031D1F00FEF1FEF08C0C8017C
:103580000E94631EE816F90648F70EEF1FEFCF3FC3
:10359000DC07E9F2C6010E94631EC817D907B8F616
:1035A000C801CDB7DEB7EBE00C949225B092BB001A
:1035B0009092BC000E944B1E8C018091BC0087FF42
:1035C0000AC08091B900887F883111F08034A1F65B
:1035D00010E000E0E5CFC8010E94631EE816F9067E
:1035E00060F7D3CF0F931F93CF93DF93EB018093BB
:1035F000BB0084E88093BC000E944B1E8C0180912C
:10360000BC0087FF11C02091B900287F81E090E0C5
:10361000283211F490E080E0919581959109DF9135
:10362000CF911F910F910895CF3FDC0741F3C8015F
:103630000E94631EC817D90710F78EEF9FEFEFCFD8
:10364000B0E0A0E0E6E2FBE10C9479256B018A0191
:103650007901B9010E94861AE6010C0D1D1DC017E3
:10366000D10711F097FF08C024E92093BC00CDB723
:10367000DEB7E8E00C949525B70189910E94F21A13
:10368000EECFB0E0A0E0E7E4FBE10C947925C62F93
:103690006A017901B8010E94861A97FD0CC0B80131
:1036A0008C2F0E94F21AE601EC0CFD1CCE15DF05F2
:1036B00011F097FF08C024E92093BC00CDB7DEB716
:1036C000E8E00C949525B80189910E94F21AEECF9A
:1036D00084E98093BC0008958EE14A9B02C081502A
:1036E000E1F74A9BFECF08955A9880E28A95F1F758
:1036F0005A9A0895FC013BE03A95F1F798E020E0F2
:1037000080E031E040E14A95F1F7880F4A9B02C022
:103710008160232742E04A95F1F7000040E14A9595
:10372000F1F7915079F790E19A95F1F799B132E07C
:103730003A95F1F7000040E14A95F1F792FB99279D
:1037400090F992272081920F90830895A1E0B0E034
:10375000ECEAFBE10C947B2519828C017C01E60EDE
:10376000F11C0E151F0541F481E09981911180E053
:103770002196E6E00C9497250E946C1BCE010196E1
:103780000E947A1BF80181938F01EBCF529A5A9ACB
:10379000089552985A9AEA9AE9E6F0E080818F7C7F
:1037A000808308956150770B91E001C0990F6A956D
:1037B000EAF720E031E0911108C0222391F05A9AF3
:1037C00080E28A95F1F75A980895492F482339F0F5
:1037D0005A9A232740E24A95F1F79695ECCF5A98EA
:1037E000F9CF5A98EDCFFF920F931F93CF93DF93AA
:1037F000EC018C01060F111DC017D10729F4CDB7BC
:10380000DEB7E5E00C949825F9900E94741B68E0FF
:103810008F2D0E94D21BF0CF1F920F920FB60F92E6
:1038200011240F931F932F933F934F935F936F93A5
:103830007F938F939F93AF93BF93EF93FF93CF9318
:10384000DF930F92CDB7DEB719820E946C1BCE01B9
:1038500001960E947A1B082F069506950695282F3B
:1038600022952570902F9570290F922F9370269591
:103870002695920F982797708981982B09F05CC044
:10388000063008F059C080E18A95F1F75A9A529AA9
:1038900082E08A95F1F700C05A9888E0089F80017D
:1038A0001124D801AD5FBE4F1696ED91FC9117978C
:1038B0003097A9F0609148017091490114962D91BB
:1038C0003C911597260F371F11968D919C91129759
:1038D000680F791F13964C9113978C910995F801F5
:1038E000ED5FFE4F6381662351F0209148013091D6
:1038F000490184819581820F931F0E94F31B0E94CE
:10390000741B80E18A95F1F75A9852985A9A80E18F
:103910008A95F1F7F801ED5FFE4F6081662351F063
:10392000209148013091490181819281820F931F3A
:103930000E94A61B0E946C1B0F90DF91CF91FF91FC
:10394000EF91BF91AF919F918F917F916F915F9117
:103950004F913F912F911F910F910F900FBE0F909C
:103960001F9018950F931F93CF93DF93EC01069749
:103970000CF04CC0F894529A5A9885E08A95F1F769
:1039800000009C2F969595708C2F8570980F892F2D
:1039900083709695969523E0CC0FDD1F2A95E1F76D
:1039A000980F8E01092B0E94741B00C068E0802FC5
:1039B0000E94D21B80E18A95F1F752985A9A4A9B4D
:1039C0001EC087E090E04A991CC0FE01ED5FFE4FEB
:1039D00063816623F9F02091480130914901848187
:1039E0009581820F931F0E94A61B811113C0529ACA
:1039F0005A9A7894DF91CF911F910F91089500C04A
:103A0000DECF019729F4529A5A9A789480E0F2CF47
:103A100000C0D9CF0E946C1B80E28A95F1F75A98BA
:103A2000529A80E18A95F1F7CD5FDE4F6881662377
:103A300051F0209148013091490189819A81820F8A
:103A4000931F0E94F31B0E94741B789481E0D2CFD5
:103A5000909363018093620108959093680280932C
:103A6000670208950E94BB12811103C08091660213
:103A70000895E0916702F0916802309729F0019073
:103A8000F081E02D0995089580E00895E0916702A6
:103A9000F0916802309721F00280F381E02D0995C2
:103AA00008959C012E5F3F4FAC01485F5F4F80E05F
:103AB0002417350709F40895F90191919F0199237D
:103AC000B9F38F5FF5CF662349F0FC013296089673
:103AD0002191261729F0E817F907D1F780E008951A
:103AE00081E008959C01FC0132969FEF80E04191B6
:103AF000461751F09F3F19F4411101C0982F8F5F75
:103B00008630A9F79F3F09F40895290F311D97FDCD
:103B10003A95F90162830895FC0132960896219145
:103B2000261303C0DF0111971C92E817F907B9F7B4
:103B300008950E94721D08950E948C1D089502969A
:103B400026E0FC0111922A95E9F7089508950E9454
:103B5000A61D0895811106C081E0809369020E942C
:103B6000A71D089582E0F9CF83E0809369020E9447
:103B7000A71D08950E94AA1D089581E080936902FF
:103B80000E94A71D08950E94BD1D089508950895DF
:103B90000E94C71D0895089508950E94C61D0895A6
:103BA000CF930E94CB1D0E943F120E94CC1DC0E00B
:103BB0008C2F0E941811811105C0CF5FCA30C1F748
:103BC000CF91089581E0FCCF85B7806885BF85B728
:103BD000806885BF08951F921FB61F9211248F938E
:103BE0009F93AF93BF9380916A02811113C080911C
:103BF000990490919A04A0919B04B0919C044196E1
:103C0000A11DB11D8093990490939A04A0939B04E5
:103C1000B0939C04BF91AF919F918F911F901FBE55
:103C20001F9018958091A104843031F10E943103D6
:103C300010926A0288E190E020E40FB6F894A8950B
:103C4000809360000FBE2093600083B7817F846003
:103C500083BF83B7816083BF7894889583B78E7F55
:103C600083BF0FB6F894A895809160008861809317
:103C70006000109260000FBE08950E9447070E94E6
:103C80003803089582E084BD93E095BD9AEF97BD17
:103C900080936E0008952FB7F894809199049091C5
:103CA0009A04A0919B04B0919C042FBF08952FB754
:103CB000F8946091990470919A0480919B0490917A
:103CC0009C042FBF08959C014FB7F89480919904EC
:103CD00090919A04A0919B04B0919C044FBF821BC9
:103CE000930B0895CF92DF92EF92FF922FB7F89443
:103CF000C0909904D0909A04E0909B04F0909C04AA
:103D00002FBFA7019601261B370B480B590BCA0181
:103D1000B901FF90EF90DF90CF90089578941F92B3
:103D20001FB61F9211248F939F93AF93BF938091DF
:103D3000990490919A04A0919B04B0919C040196DF
:103D4000A11DB11D8093990490939A04A0939B04A4
:103D5000B0939C04BF91AF919F918F911F901FBE14
:103D60001F90189587E797E79093010880930008C4
:103D700088E19AE00FB6F894A895809360000FBE92
:103D800090936000FFCF88E19AE00FB6F894A89571
:103D9000809360000FBE90936000FFCF809173020C
:103DA0000895089508959B01BA019091A10494305B
:103DB000E9F48F708093E9009FEF8091E8009150C3
:103DC00085FD06C085ED8A95F1F700009111F5CFCC
:103DD0008091E80085FF0AC050E040E0C9010E94E0
:103DE000A8208091E8008E778093E8000895CF9313
:103DF000DF93EC0148E050E0BC0181E00E94D31E5B
:103E000088E0FE01ABE6B2E001900D928A95E1F701
:103E1000DF91CF9108958091A004811109C00E9483
:103E200038220E9495228091E20084608093E20013
:103E300008951092A00408950E94BD1D08956091F8
:103E40009D0481E0611101C080E00E94B41D0895CD
:103E50009091A10481E0943009F080E060919D048C
:103E60000E94BA1D089542E061EC81E00E94B421F5
:103E70009091A10481E0943009F080E060919D046C
:103E80000E94AA1D08958091A304833009F461C0A3
:103E900030F48130D1F1823009F49EC008958A3027
:103EA00009F48AC08B3009F46FC0893009F050C022
:103EB0008091A204813209F04BC08091A6049091B8
:103EC000A704892B09F044C08091E800877F809384
:103ED000E8008091E80082FF37C09091F300809164
:103EE000F200029731F48091F100813011F08630B8
:103EF00021F48091F100809373028091E8008B7728
:103F00008093E8000E94E82123C08091A204813AB6
:103F1000F9F48091E800877F8093E8008091A604FF
:103F20009091A704892B61F468E08BE692E070E041
:103F30000E94F7208091E8008B778093E800089535
:103F400060E090E080E0F3CF8091A1048111C1CFC7
:103F500008958091A204813AD9F78091A6049091A6
:103F6000A704892BA9F78091E800877F8093E80058
:103F70008091E80080FFFCCF80913C018093F100AC
:103F80008091E8008E77BCCF8091A204813201F746
:103F90008091A6049091A704892BD1F68091E80026
:103FA000877F8093E8000E94E8218091A404809399
:103FB0003C010E94470708958091A204813241F696
:103FC0008091E800877F8093E8000E94E82180913B
:103FD000A5048093740208958091A204813A09F0A7
:103FE000B7CF8091E800877F8093E8008091E80058
:103FF00080FFFCCF80917402C1CF84B7877F84BFDC
:104000000FB6F894A8958091600088618093600055
:10401000109260000FBE80E890E00FB6F894809395
:104020006100909361000FBE0E94C31D08950E941D
:1040300038220E949522E2EEF0E080818460808345
:1040400078940E941425089584E391E00E942D1D28
:1040500008958091A104853031F48091A1048530C8
:1040600019F00E943D1E08950E94121E80919F0427
:10407000882399F30E94D01D882379F30E9492200F
:104080000E944707EACF08959A014091A8045091F1
:10409000A9040E944C200895492F5527433051050B
:1040A000C9F058F44130510599F142305105A9F158
:1040B00090E080E050E040E01DC04132510509F140
:1040C00042325105A9F780E490E044E054E0672BC8
:1040D00079F710C099278130910581F0009729F078
:1040E000029731F7E2EAF3E002C0ECECF3E08491EE
:1040F00090E0AF01F901518340830895E0EBF3E0D4
:10410000F6CF89E090E042EE53E0672B89F6F2CFDC
:1041100082E190E042EF53E0EDCF82E290E040EDAB
:1041200053E0E8CF80E189BD82E189BD09B400FE9A
:10413000FDCF8091D8008F7D8093D8008091E000E2
:1041400082608093E0008091E00081FDFCCF0895C3
:10415000AF92BF92CF92DF92FF920F931F93CF93B4
:10416000DF936C01EB018A010E940722F82E811176
:1041700023C00115110539F0F80180819181C81B18
:10418000D90BC80ED91EB12CA12C2097A9F0809173
:10419000E80085FD22C08091E8008E778093E800DA
:1041A00001151105A1F0F80180819181A80EB91EB9
:1041B000B182A08285E0F82E8F2DDF91CF911F91E3
:1041C0000F91FF90DF90CF90BF90AF9008950E9425
:1041D00007228823D1F2F82EEFCFF60181916F01EB
:1041E0008093F1002197FFEFAF1ABF0ACECFFC01F9
:1041F0008091A8049091A90486179707A0F06115F3
:10420000710529F49091E8009E779093E80090E082
:104210006115710551F4911108C08091E80082FF89
:1042200034C080E00895BC01F2CF8091A1048823BE
:10423000C1F18530C1F18091E80083FD30C08091EB
:10424000E80082FDEACF8091E80080FFE1CF809115
:10425000F3002091F200382F6115710519F0283014
:10426000310558F091E02830310509F090E02091B7
:10427000E8002E772093E800CBCF81918093F10066
:10428000615071092F5F3F4FE7CF8091A1048823D0
:1042900041F0853041F08091E80083FFBECF81E09E
:1042A000089582E0089583E00895FC018091A804B8
:1042B0009091A90486179707A0F06115710529F45C
:1042C0008091E8008E778093E80090E06115710599
:1042D00051F4911108C08091E80082FF35C080E060
:1042E0000895BC01F2CF8091A1048823C9F18530E3
:1042F000C9F18091E80083FD31C08091E80082FD22
:10430000EACF8091E80080FFE1CF8091F300209117
:10431000F200382F6115710519F02830310558F079
:1043200091E02830310509F090E08091E8008E7727
:104330008093E800CBCF84918093F1003196615057
:1043400071092F5F3F4FE6CF8091A104882341F090
:10435000853041F08091E80083FFBDCF81E0089572
:1043600082E0089583E00895982F973028F08F70A9
:104370008093E90081E008959093E900242F762F3F
:1043800050E0981731F07091EC002091ED005091C1
:10439000F00021FD02C09F5FE8CF3091EB003E7F2F
:1043A0003093EB003091ED003D7F3093ED00309184
:1043B000EB0031603093EB007093EC002093ED0044
:1043C0005093F0002091EE0027FDE5CF80E00895A6
:1043D0008091A20487FF13C08091E80082FF06C08D
:1043E0008091E8008B778093E80004C08091A1045D
:1043F0008111F2CF08958091A1048823D9F380918F
:10440000E80080FFF8CF8091E8008E77ECCF209114
:10441000E4003091E50095E6A9012091EC00822F9F
:10442000817020FF06C08091E80080FF06C080E018
:1044300008952091E80022FD1AC08091A1048823EC
:1044400089F0853089F08091EB0085FD0FC02091C7
:10445000E4003091E50042175307F9F29150E1F67C
:1044600084E0089582E0089583E0089581E008954E
:104470000E94A7220E94AF22E0EEF0E080818160DE
:104480008083E8EDF0E080818F77808319BCA7ED11
:10449000B0E08C918E7F8C9380818F7E8083109290
:1044A000A00408950F931F93CF93DF930E94A72238
:1044B0000E94AF22C8EDD0E088818F778883888101
:1044C0008068888388818F7D888319BC1092A104BD
:1044D00010929D0410929F0410929E0400EE10E032
:1044E000F80180818B7F808388818160888342E0AE
:1044F00060E080E00E94B421E1EEF0E080818E7FF8
:104500008083E2EEF0E0808181608083808188603A
:104510008083F80180818E7F808388818061888399
:10452000DF91CF911F910F910895E8EDF0E0808128
:104530008F7E8083E7EDF0E080818160808384E07E
:1045400082BF81E08093A0040E9452220895E8ED8A
:10455000F0E080818E7F80831092E20008951092B7
:10456000DA001092E10008951F920F920FB60F9299
:1045700011242F933F934F935F936F937F938F9368
:104580009F93AF93BF93EF93FF938091E10082FFDE
:104590000BC08091E20082FF07C08091E1008B7F19
:1045A0008093E1000E9413258091DA0080FF19C0FA
:1045B0008091D80080FF15C08091DA008E7F8093B3
:1045C000DA008091D90080FF96C080E189BD82E148
:1045D00089BD09B400FEFDCF81E08093A1040E9453
:1045E0000B1F8091E10080FF19C08091E20080FFE5
:1045F00015C08091E2008E7F8093E2008091E200FE
:1046000080618093E2008091D80080628093D8001E
:1046100019BC85E08093A1040E941F1F8091E100D6
:1046200084FF2BC08091E20084FF27C080E189BD18
:1046300082E189BD89B5982F917080FFFBCF809171
:10464000D8008F7D8093D8008091E1008F7E809389
:10465000E1008091E2008F7E8093E2008091E20091
:1046600081608093E20080919D04882309F449C011
:1046700084E08093A1040E94281F8091E10083FFC1
:1046800029C08091E20083FF25C08091E100877FEF
:104690008093E10082E08093A10410929D048091B8
:1046A000E1008E7F8093E1008091E2008E7F809315
:1046B000E2008091E20080618093E20042E060E0ED
:1046C00080E00E94B4218091F00088608093F00027
:1046D0000E941C1FFF91EF91BF91AF919F918F910D
:1046E0007F916F915F914F913F912F910F900FBEEE
:1046F0000F901F90189519BC1092A1040E94191FC9
:1047000070CF8091E30087FD93E09093A104B3CF35
:104710001F920F920FB60F9211242F933F934F9336
:104720005F936F937F938F939F93AF93BF93CF9339
:10473000DF93EF93FF93D091E900DF708091EC005D
:10474000C82FC17080FDC0E81092E9008091F00090
:10475000877F8093F00078940E94CC231092E90028
:104760008091F00088608093F000CD2BCF70C093D3
:10477000E900FF91EF91DF91CF91BF91AF919F91B0
:104780008F917F916F915F914F913F912F910F90FA
:104790000FBE0F901F901895AAE2B0E0E2EDF3E291
:1047A0000C947E2582EA94E02091F100FC01219393
:1047B000CF01F4E08A3A9F07B9F70E94431F809126
:1047C000E80083FF1EC18091A2049091A3049A3057
:1047D00008F017C1E92FF0E0E45BF94D0C9469256E
:1047E000803899F0823809F00CC18091A6048F704E
:1047F000873008F006C18093E9008091EB0085FBCB
:10480000882780F91092E90006C080919E0490915B
:104810009F04911182609091E800977F9093E80047
:104820008093F1001092F1008091E8008E77E5C04E
:10483000882309F4D3C0823009F0E3C08091A40436
:104840008111D6C08091A6048F702FEF280F2630DB
:1048500008F0D7C08093E9002091EB0020FFC8C08A
:10486000933031F48091EB0080628093EB00C0C004
:104870009091EB0090619093EB0021E030E001C05B
:10488000220F8A95EAF72093EA001092EA008091BD
:10489000EB008860EACF8111B4C01091A4041F77A7
:1048A0008091E3008078812B8093E3008091E80081
:1048B000877F8093E8000E94E8218091E80080FFD4
:1048C000FCCF8091E30080688093E30082E01111C7
:1048D00083E08093A10495C08058823008F091C095
:1048E0008091A4049091A5048C3D23E09207A1F54A
:1048F00083E08A838AE289834FB7F894DE011396B6
:1049000020E03EE051E2E32FF0E050935700E491C5
:1049100020FF03C0E295EF703F5FEF708E2F90E0B5
:10492000EA30C0F0C7968D939D932F5F243159F7DD
:104930004FBF8091E800877F8093E8006AE270E0D3
:10494000CE0101960E94F7208091E8008B7780933A
:10495000E80057C0C096E7CF6091A6047091A70405
:10496000AE014F5F5F4F0E944420BC01892B09F4C8
:1049700048C09091E800977F9093E80089819A81E0
:104980000E945521E1CF8038E1F58091E800877FD2
:104990008093E80080919D048093F10045CF8111C0
:1049A00030C09091A404923060F58091E800877F38
:1049B0008093E80090939D040E94E82180919D04DB
:1049C000882311F084E005C08091E30087FDFACFD1
:1049D00081E08093A1040E94331F13C08091A4043E
:1049E000813079F481E0933009F080E080939F0476
:1049F0001092E9008091E800877F8093E8000E9490
:104A0000E8218091E80083FF0AC08091E800877F59
:104A10008093E8008091EB0080628093EB00AA967F
:104A2000E3E00C949A250895CF938091A104882304
:104A3000A1F0C091E900CF709091EC00892F8170B6
:104A400090FD80E8C82B1092E9008091E80083FD7A
:104A50000E94CC23CF70C093E900CF9108950E94AB
:104A600038221092A1040895E8EDF0E08081806181
:104A700080838AE18A95F1F700C08091D900817026
:104A80000895AA1BBB1B51E107C0AA1FBB1FA61795
:104A9000B70710F0A61BB70B881F991F5A95A9F7E7
:104AA00080959095BC01CD01089597FB072E16F4D3
:104AB000009407D077FD09D00E94412507FC05D05E
:104AC0003EF4909581959F4F0895709561957F4F25
:104AD0000895EE0FFF1F0590F491E02D09942F9299
:104AE0003F924F925F926F927F928F929F92AF927E
:104AF000BF92CF92DF92EF92FF920F931F93CF93CB
:104B0000DF93CDB7DEB7CA1BDB0B0FB6F894DEBF61
:104B10000FBECDBF09942A88398848885F846E8487
:104B20007D848C849B84AA84B984C884DF80EE80D1
:104B3000FD800C811B81AA81B981CE0FD11D0FB6DA
:104B4000F894DEBF0FBECDBFED010895FB01DC017F
:104B500004C08D910190801921F441505040C8F754
:104B6000881B990B0895FB01DC0102C001900D9296
:104B700041505040D8F70895F999FECF92BD81BDBC
:104B8000F89A992780B50895A8E1B0E042E050E096
:104B90000C940026DC01A40FB51F4150504048F092
:104BA000CB01840F951F2E910E94DB254150504070
:104BB000D0F70895262FF999FECF92BD81BDF89ABE
:104BC000019700B4021639F01FBA20BD0FB6F89451
:104BD000FA9AF99A0FBE08950396272F0E94DB25B3
:104BE0000E94DA25252F0E94DB25242F0C94DB253B
:104BF0000196272F0E94DB250C94DA25DC01CB01DE
:104C0000FC01F999FECF06C0F2BDE1BDF89A3196DC
:104C100000B40D9241505040B8F70895F894FFCF7A
:104C2000F304F3044E054E0523052305A1062305D1
:104C3000B9052C063C063C06AA06CB06B406B70608
:104C4000BE06BA06C306A7171B18AF1779177D173C
:104C5000B3178117B717C3178D1714189117C717F4
:104C60009517CB17F3179917CF17FA179F17D51763
:104C7000DD178517BB178917BF17A317D917E917B2
:104C8000031812187317AB172218591A5F1A481A0B
:104C9000531A651A6B1A711AF02318240125182467
:0C4CA00001254B246C240125C324CF24E3
:104CAC00E50101000000010000000000000005010A
:104CBC0000000000000001060000000000000107D9
:104CCC0000000004080000000000000021007F220A
:104CDC000003F4F5CE1EF71ED21ED11E01F6F731DD
:104CEC003332366697C63435100200081018181087
:104CFC00080000FF0100010000FFFF00000100019F
:024D0C00FF00A6
:00000001FF
